{
  "contractName": "DataManager",
  "abi": [
    {
      "constant": true,
      "inputs": [],
      "name": "accountsCount",
      "outputs": [
        {
          "name": "",
          "type": "uint256"
        }
      ],
      "payable": false,
      "stateMutability": "view",
      "type": "function"
    },
    {
      "constant": true,
      "inputs": [],
      "name": "message",
      "outputs": [
        {
          "name": "",
          "type": "string"
        }
      ],
      "payable": false,
      "stateMutability": "view",
      "type": "function"
    },
    {
      "constant": true,
      "inputs": [
        {
          "name": "",
          "type": "uint256"
        }
      ],
      "name": "accounts",
      "outputs": [
        {
          "name": "Id",
          "type": "uint256"
        },
        {
          "name": "Name",
          "type": "string"
        },
        {
          "name": "Balance",
          "type": "uint256"
        }
      ],
      "payable": false,
      "stateMutability": "view",
      "type": "function"
    },
    {
      "inputs": [],
      "payable": false,
      "stateMutability": "nonpayable",
      "type": "constructor"
    },
    {
      "constant": false,
      "inputs": [
        {
          "name": "name",
          "type": "string"
        }
      ],
      "name": "addAccount",
      "outputs": [],
      "payable": false,
      "stateMutability": "nonpayable",
      "type": "function"
    },
    {
      "constant": false,
      "inputs": [
        {
          "name": "amount",
          "type": "uint256"
        },
        {
          "name": "account",
          "type": "uint256"
        }
      ],
      "name": "withdraw",
      "outputs": [
        {
          "name": "",
          "type": "bool"
        }
      ],
      "payable": false,
      "stateMutability": "nonpayable",
      "type": "function"
    },
    {
      "constant": false,
      "inputs": [
        {
          "name": "amount",
          "type": "uint256"
        },
        {
          "name": "account",
          "type": "uint256"
        }
      ],
      "name": "deposit",
      "outputs": [],
      "payable": false,
      "stateMutability": "nonpayable",
      "type": "function"
    },
    {
      "constant": false,
      "inputs": [
        {
          "name": "amount",
          "type": "uint256"
        },
        {
          "name": "fromAccount",
          "type": "uint256"
        },
        {
          "name": "toAccount",
          "type": "uint256"
        }
      ],
      "name": "transfer",
      "outputs": [
        {
          "name": "",
          "type": "bool"
        }
      ],
      "payable": false,
      "stateMutability": "nonpayable",
      "type": "function"
    },
    {
      "constant": true,
      "inputs": [
        {
          "name": "account",
          "type": "uint256"
        }
      ],
      "name": "getBalance",
      "outputs": [
        {
          "name": "",
          "type": "uint256"
        }
      ],
      "payable": false,
      "stateMutability": "view",
      "type": "function"
    }
  ],
  "bytecode": "0x608060405234801561001057600080fd5b5061005e6040805190810160405280600c81526020017f46697273744163636f756e740000000000000000000000000000000000000000815250610063640100000000026401000000009004565b610185565b600160008154809291906001019190505550606060405190810160405280600154815260200182815260200160008152506002600060015481526020019081526020016000206000820151816000015560208201518160010190805190602001906100cf9291906100e0565b506040820151816002015590505050565b828054600181600116156101000203166002900490600052602060002090601f016020900481019282601f1061012157805160ff191683800117855561014f565b8280016001018555821561014f579182015b8281111561014e578251825591602001919060010190610133565b5b50905061015c9190610160565b5090565b61018291905b8082111561017e576000816000905550600101610166565b5090565b90565b61075f806101946000396000f30060806040526004361061008e576000357c0100000000000000000000000000000000000000000000000000000000900463ffffffff1680631e0104391461009357806327538b30146100d45780632ad26a04146100ff578063441a3e701461016857806390dd2627146101b7578063e21f37ce14610210578063e2bbb158146102a0578063f2a40db8146102d7575b600080fd5b34801561009f57600080fd5b506100be6004803603810190808035906020019092919050505061038b565b6040518082815260200191505060405180910390f35b3480156100e057600080fd5b506100e96103ab565b6040518082815260200191505060405180910390f35b34801561010b57600080fd5b50610166600480360381019080803590602001908201803590602001908080601f01602080910402602001604051908101604052809392919081815260200183838082843782019150505050505091929192905050506103b1565b005b34801561017457600080fd5b5061019d600480360381019080803590602001909291908035906020019092919050505061042e565b604051808215151515815260200191505060405180910390f35b3480156101c357600080fd5b506101f660048036038101908080359060200190929190803590602001909291908035906020019092919050505061048a565b604051808215151515815260200191505060405180910390f35b34801561021c57600080fd5b50610225610506565b6040518080602001828103825283818151815260200191508051906020019080838360005b8381101561026557808201518184015260208101905061024a565b50505050905090810190601f1680156102925780820380516001836020036101000a031916815260200191505b509250505060405180910390f35b3480156102ac57600080fd5b506102d560048036038101908080359060200190929190803590602001909291905050506105a4565b005b3480156102e357600080fd5b50610302600480360381019080803590602001909291905050506105cc565b6040518084815260200180602001838152602001828103825284818151815260200191508051906020019080838360005b8381101561034e578082015181840152602081019050610333565b50505050905090810190601f16801561037b5780820380516001836020036101000a031916815260200191505b5094505050505060405180910390f35b600060026000838152602001908152602001600020600201549050919050565b60015481565b6001600081548092919060010191905055506060604051908101604052806001548152602001828152602001600081525060026000600154815260200190815260200160002060008201518160000155602082015181600101908051906020019061041d92919061068e565b506040820151816002015590505050565b600082600260008481526020019081526020016000206002015410151561047f5782600003600260008481526020019081526020016000206002016000828254019250508190555060019050610484565b600090505b92915050565b6000806002600085815260200190815260200160002060020154905084811015156104f9578481036002600086815260200190815260200160002060020181905550846002600085815260200190815260200160002060020160008282540192505081905550600191506104fe565b600091505b509392505050565b60008054600181600116156101000203166002900480601f01602080910402602001604051908101604052809291908181526020018280546001816001161561010002031660029004801561059c5780601f106105715761010080835404028352916020019161059c565b820191906000526020600020905b81548152906001019060200180831161057f57829003601f168201915b505050505081565b8160026000838152602001908152602001600020600201600082825401925050819055505050565b6002602052806000526040600020600091509050806000015490806001018054600181600116156101000203166002900480601f01602080910402602001604051908101604052809291908181526020018280546001816001161561010002031660029004801561067e5780601f106106535761010080835404028352916020019161067e565b820191906000526020600020905b81548152906001019060200180831161066157829003601f168201915b5050505050908060020154905083565b828054600181600116156101000203166002900490600052602060002090601f016020900481019282601f106106cf57805160ff19168380011785556106fd565b828001600101855582156106fd579182015b828111156106fc5782518255916020019190600101906106e1565b5b50905061070a919061070e565b5090565b61073091905b8082111561072c576000816000905550600101610714565b5090565b905600a165627a7a7230582030e58e0f7b39b8b690671b2616224bdf8a29d9863ec883c886e0662134c15f8c0029",
  "source": "pragma solidity ^0.4.15;\n\ncontract DataManager {\n    string public message;\n    uint public accountsCount;\n    mapping(uint => Account) public accounts;\n\n    struct Account {\n        uint Id;\n        string Name;\n        uint Balance;\n    }\n\n    function addAccount(string name) public {\n        accountsCount++;\n        accounts[accountsCount] = Account(accountsCount,name, 0);\n    }\n\n    function withdraw(uint amount, uint account) public returns(bool) {\n        if (accounts[account].Balance >= amount) {\n            accounts[account].Balance += -amount;\n            return true;\n        }\n        return false;\n    }\n\n    function deposit(uint amount, uint account) public {\n        accounts[account].Balance += amount;\n    }\n\n    function transfer(uint amount, uint fromAccount, uint toAccount) public returns(bool) {\n        uint acBalance = accounts[fromAccount].Balance;\n        if (acBalance >= amount) {\n            accounts[fromAccount].Balance = acBalance - amount;\n            accounts[toAccount].Balance += amount;\n            return true;\n        }\n        return false;\n    }\n\n    function getBalance(uint account) public view returns(uint) {\n        return accounts[account].Balance;\n    }\n\n    constructor () public {\n        addAccount(\"FirstAccount\");\n    }\n}",
  "sourcePath": "/Users/ditlev/ddd/contracts/DataManager.sol",
  "compiler": {
    "name": "solc",
    "version": "0.4.24+commit.e67f0147.Emscripten.clang"
  },
  "schemaVersion": "2.0.1",
  "updatedAt": "2018-11-07T11:28:33.340Z"
}